{
  "_format": "hh-sol-artifact-1",
  "contractName": "RedPacket",
  "sourceName": "contracts/RedPacket.sol",
  "abi": [
    {
      "anonymous": false,
      "inputs": [
        {
          "indexed": true,
          "internalType": "uint256",
          "name": "id",
          "type": "uint256"
        },
        {
          "indexed": true,
          "internalType": "address",
          "name": "claimer",
          "type": "address"
        },
        {
          "indexed": false,
          "internalType": "uint256",
          "name": "amount",
          "type": "uint256"
        },
        {
          "indexed": false,
          "internalType": "uint256",
          "name": "timestamp",
          "type": "uint256"
        }
      ],
      "name": "RedPacketClaimed",
      "type": "event"
    },
    {
      "anonymous": false,
      "inputs": [
        {
          "indexed": true,
          "internalType": "uint256",
          "name": "id",
          "type": "uint256"
        },
        {
          "indexed": true,
          "internalType": "address",
          "name": "sender",
          "type": "address"
        },
        {
          "indexed": false,
          "internalType": "uint256",
          "name": "totalAmount",
          "type": "uint256"
        },
        {
          "indexed": false,
          "internalType": "uint256",
          "name": "totalParticipants",
          "type": "uint256"
        },
        {
          "indexed": false,
          "internalType": "uint256",
          "name": "endTime",
          "type": "uint256"
        }
      ],
      "name": "RedPacketCreated",
      "type": "event"
    },
    {
      "anonymous": false,
      "inputs": [
        {
          "indexed": true,
          "internalType": "uint256",
          "name": "id",
          "type": "uint256"
        },
        {
          "indexed": true,
          "internalType": "address",
          "name": "sender",
          "type": "address"
        },
        {
          "indexed": false,
          "internalType": "uint256",
          "name": "remainingAmount",
          "type": "uint256"
        },
        {
          "indexed": false,
          "internalType": "uint256",
          "name": "timestamp",
          "type": "uint256"
        }
      ],
      "name": "RedPacketRecovered",
      "type": "event"
    },
    {
      "inputs": [
        {
          "internalType": "uint256",
          "name": "",
          "type": "uint256"
        },
        {
          "internalType": "uint256",
          "name": "",
          "type": "uint256"
        }
      ],
      "name": "claimRecords",
      "outputs": [
        {
          "internalType": "address",
          "name": "claimer",
          "type": "address"
        },
        {
          "internalType": "uint256",
          "name": "amount",
          "type": "uint256"
        },
        {
          "internalType": "uint256",
          "name": "timestamp",
          "type": "uint256"
        }
      ],
      "stateMutability": "view",
      "type": "function"
    },
    {
      "inputs": [
        {
          "internalType": "uint256",
          "name": "id",
          "type": "uint256"
        }
      ],
      "name": "claimRedPacket",
      "outputs": [],
      "stateMutability": "nonpayable",
      "type": "function"
    },
    {
      "inputs": [
        {
          "internalType": "uint256",
          "name": "totalParticipants",
          "type": "uint256"
        },
        {
          "internalType": "uint256",
          "name": "endTime",
          "type": "uint256"
        }
      ],
      "name": "createRedPacket",
      "outputs": [],
      "stateMutability": "payable",
      "type": "function"
    },
    {
      "inputs": [
        {
          "internalType": "uint256",
          "name": "id",
          "type": "uint256"
        }
      ],
      "name": "getClaimRecords",
      "outputs": [
        {
          "components": [
            {
              "internalType": "address",
              "name": "claimer",
              "type": "address"
            },
            {
              "internalType": "uint256",
              "name": "amount",
              "type": "uint256"
            },
            {
              "internalType": "uint256",
              "name": "timestamp",
              "type": "uint256"
            }
          ],
          "internalType": "struct RedPacket.ClaimRecord[]",
          "name": "",
          "type": "tuple[]"
        }
      ],
      "stateMutability": "view",
      "type": "function"
    },
    {
      "inputs": [
        {
          "internalType": "uint256",
          "name": "id",
          "type": "uint256"
        }
      ],
      "name": "getPacketInfo",
      "outputs": [
        {
          "internalType": "address",
          "name": "sender",
          "type": "address"
        },
        {
          "internalType": "uint256",
          "name": "totalAmount",
          "type": "uint256"
        },
        {
          "internalType": "uint256",
          "name": "totalParticipants",
          "type": "uint256"
        },
        {
          "internalType": "uint256",
          "name": "claimedCount",
          "type": "uint256"
        },
        {
          "internalType": "bool",
          "name": "isRecoverable",
          "type": "bool"
        },
        {
          "internalType": "uint256",
          "name": "endTime",
          "type": "uint256"
        }
      ],
      "stateMutability": "view",
      "type": "function"
    },
    {
      "inputs": [
        {
          "internalType": "uint256",
          "name": "id",
          "type": "uint256"
        },
        {
          "internalType": "address",
          "name": "user",
          "type": "address"
        }
      ],
      "name": "hasUserClaimed",
      "outputs": [
        {
          "internalType": "bool",
          "name": "",
          "type": "bool"
        }
      ],
      "stateMutability": "view",
      "type": "function"
    },
    {
      "inputs": [],
      "name": "packetCounter",
      "outputs": [
        {
          "internalType": "uint256",
          "name": "",
          "type": "uint256"
        }
      ],
      "stateMutability": "view",
      "type": "function"
    },
    {
      "inputs": [
        {
          "internalType": "uint256",
          "name": "",
          "type": "uint256"
        }
      ],
      "name": "packets",
      "outputs": [
        {
          "internalType": "address payable",
          "name": "sender",
          "type": "address"
        },
        {
          "internalType": "uint256",
          "name": "totalAmount",
          "type": "uint256"
        },
        {
          "internalType": "uint256",
          "name": "totalParticipants",
          "type": "uint256"
        },
        {
          "internalType": "uint256",
          "name": "claimedCount",
          "type": "uint256"
        },
        {
          "internalType": "uint256",
          "name": "endTime",
          "type": "uint256"
        },
        {
          "internalType": "bool",
          "name": "isRecoverable",
          "type": "bool"
        }
      ],
      "stateMutability": "view",
      "type": "function"
    },
    {
      "inputs": [
        {
          "internalType": "uint256",
          "name": "id",
          "type": "uint256"
        }
      ],
      "name": "recoverRemaining",
      "outputs": [],
      "stateMutability": "nonpayable",
      "type": "function"
    }
  ],
  "bytecode": "0x6080604052600060025534801561001557600080fd5b50611a89806100256000396000f3fe6080604052600436106100865760003560e01c8063c5c709de11610059578063c5c709de14610157578063d0a9e0c014610196578063d9bf3005146101d8578063dabcaf0614610203578063f50e1da01461021f57610086565b806307c7a72d1461008b5780636656432e146100c85780636d35f734146100f157806398baab441461012e575b600080fd5b34801561009757600080fd5b506100b260048036038101906100ad9190610f66565b610261565b6040516100bf9190610fc1565b60405180910390f35b3480156100d457600080fd5b506100ef60048036038101906100ea9190610fdc565b61036e565b005b3480156100fd57600080fd5b5061011860048036038101906101139190610fdc565b61086d565b6040516101259190611118565b60405180910390f35b34801561013a57600080fd5b5061015560048036038101906101509190610fdc565b610949565b005b34801561016357600080fd5b5061017e6004803603810190610179919061113a565b610be2565b60405161018d93929190611198565b60405180910390f35b3480156101a257600080fd5b506101bd60048036038101906101b89190610fdc565b610c49565b6040516101cf969594939291906111f0565b60405180910390f35b3480156101e457600080fd5b506101ed610cb2565b6040516101fa9190611251565b60405180910390f35b61021d6004803603810190610218919061113a565b610cb8565b005b34801561022b57600080fd5b5061024660048036038101906102419190610fdc565b610e4d565b6040516102589695949392919061126c565b60405180910390f35b60008073ffffffffffffffffffffffffffffffffffffffff1660008085815260200190815260200160002060000160009054906101000a900473ffffffffffffffffffffffffffffffffffffffff1673ffffffffffffffffffffffffffffffffffffffff1603610306576040517f08c379a00000000000000000000000000000000000000000000000000000000081526004016102fd9061132a565b60405180910390fd5b60008084815260200190815260200160002060060160008373ffffffffffffffffffffffffffffffffffffffff1673ffffffffffffffffffffffffffffffffffffffff16815260200190815260200160002060009054906101000a900460ff16905092915050565b60008060008381526020019081526020016000209050600073ffffffffffffffffffffffffffffffffffffffff168160000160009054906101000a900473ffffffffffffffffffffffffffffffffffffffff1673ffffffffffffffffffffffffffffffffffffffff1603610417576040517f08c379a000000000000000000000000000000000000000000000000000000000815260040161040e9061132a565b60405180910390fd5b8060050160009054906101000a900460ff16610468576040517f08c379a000000000000000000000000000000000000000000000000000000000815260040161045f906113bc565b60405180910390fd5b80600201548160030154106104b2576040517f08c379a00000000000000000000000000000000000000000000000000000000081526004016104a990611428565b60405180910390fd5b8060040154421115806104c9575060008160040154145b610508576040517f08c379a00000000000000000000000000000000000000000000000000000000081526004016104ff90611494565b60405180910390fd5b8060060160003373ffffffffffffffffffffffffffffffffffffffff1673ffffffffffffffffffffffffffffffffffffffff16815260200190815260200160002060009054906101000a900460ff1615610597576040517f08c379a000000000000000000000000000000000000000000000000000000000815260040161058e90611526565b60405180910390fd5b6000816002015482600101546105ad91906115a4565b9050600182600201546105c091906115d5565b8260030154036105ff57816002015482600101546105de91906115a4565b82600301546105ed9190611609565b82600101546105fc91906115d5565b90505b60003373ffffffffffffffffffffffffffffffffffffffff16826040516106259061167c565b60006040518083038185875af1925050503d8060008114610662576040519150601f19603f3d011682016040523d82523d6000602084013e610667565b606091505b50509050806106ab576040517f08c379a00000000000000000000000000000000000000000000000000000000081526004016106a2906116dd565b60405180910390fd5b8260030160008154809291906106c0906116fd565b919050555060018360060160003373ffffffffffffffffffffffffffffffffffffffff1673ffffffffffffffffffffffffffffffffffffffff16815260200190815260200160002060006101000a81548160ff0219169083151502179055506001600085815260200190815260200160002060405180606001604052803373ffffffffffffffffffffffffffffffffffffffff16815260200184815260200142815250908060018154018082558091505060019003906000526020600020906003020160009091909190915060008201518160000160006101000a81548173ffffffffffffffffffffffffffffffffffffffff021916908373ffffffffffffffffffffffffffffffffffffffff160217905550602082015181600101556040820151816002015550503373ffffffffffffffffffffffffffffffffffffffff16847fbb7f025bba52443010cd39d48ad8423a7c12533274f1d7943d72f8c4f4e0f7028442604051610832929190611745565b60405180910390a382600201548360030154036108675760008360050160006101000a81548160ff0219169083151502179055505b50505050565b606060016000838152602001908152602001600020805480602002602001604051908101604052809291908181526020016000905b8282101561093e57838290600052602060002090600302016040518060600160405290816000820160009054906101000a900473ffffffffffffffffffffffffffffffffffffffff1673ffffffffffffffffffffffffffffffffffffffff1673ffffffffffffffffffffffffffffffffffffffff16815260200160018201548152602001600282015481525050815260200190600101906108a2565b505050509050919050565b600080600083815260200190815260200160002090503373ffffffffffffffffffffffffffffffffffffffff168160000160009054906101000a900473ffffffffffffffffffffffffffffffffffffffff1673ffffffffffffffffffffffffffffffffffffffff16146109f1576040517f08c379a00000000000000000000000000000000000000000000000000000000081526004016109e8906117ba565b60405180910390fd5b8060050160009054906101000a900460ff16610a42576040517f08c379a0000000000000000000000000000000000000000000000000000000008152600401610a399061184c565b60405180910390fd5b8060020154816003015410610a8c576040517f08c379a0000000000000000000000000000000000000000000000000000000008152600401610a83906118b8565b60405180910390fd5b600081600201548260010154610aa291906115a4565b8260030154610ab19190611609565b8260010154610ac091906115d5565b905060003373ffffffffffffffffffffffffffffffffffffffff1682604051610ae89061167c565b60006040518083038185875af1925050503d8060008114610b25576040519150601f19603f3d011682016040523d82523d6000602084013e610b2a565b606091505b5050905080610b6e576040517f08c379a0000000000000000000000000000000000000000000000000000000008152600401610b6590611924565b60405180910390fd5b60008360050160006101000a81548160ff0219169083151502179055503373ffffffffffffffffffffffffffffffffffffffff16847f6e938ace6408b0799f950ac85a8c7164228d1a8f743a4175759a286ba1c240848442604051610bd4929190611745565b60405180910390a350505050565b60016020528160005260406000208181548110610bfe57600080fd5b9060005260206000209060030201600091509150508060000160009054906101000a900473ffffffffffffffffffffffffffffffffffffffff16908060010154908060020154905083565b60006020528060005260406000206000915090508060000160009054906101000a900473ffffffffffffffffffffffffffffffffffffffff16908060010154908060020154908060030154908060040154908060050160009054906101000a900460ff16905086565b60025481565b60003411610cfb576040517f08c379a0000000000000000000000000000000000000000000000000000000008152600401610cf290611990565b60405180910390fd5b60008211610d3e576040517f08c379a0000000000000000000000000000000000000000000000000000000008152600401610d35906119fc565b60405180910390fd5b600060026000815480929190610d53906116fd565b91905055905060008060008381526020019081526020016000209050338160000160006101000a81548173ffffffffffffffffffffffffffffffffffffffff021916908373ffffffffffffffffffffffffffffffffffffffff1602179055503481600101819055508381600201819055506000816003018190555082816004018190555060018160050160006101000a81548160ff0219169083151502179055503373ffffffffffffffffffffffffffffffffffffffff16827f786e4ba91945a67c67f4209e400b8d5c2619715b28c32419bb8da4c8a0ef51d9348787604051610e3f93929190611a1c565b60405180910390a350505050565b600080600080600080600080600089815260200190815260200160002090508060000160009054906101000a900473ffffffffffffffffffffffffffffffffffffffff168160010154826002015483600301548460050160009054906101000a900460ff1685600401549650965096509650965096505091939550919395565b600080fd5b6000819050919050565b610ee581610ed2565b8114610ef057600080fd5b50565b600081359050610f0281610edc565b92915050565b600073ffffffffffffffffffffffffffffffffffffffff82169050919050565b6000610f3382610f08565b9050919050565b610f4381610f28565b8114610f4e57600080fd5b50565b600081359050610f6081610f3a565b92915050565b60008060408385031215610f7d57610f7c610ecd565b5b6000610f8b85828601610ef3565b9250506020610f9c85828601610f51565b9150509250929050565b60008115159050919050565b610fbb81610fa6565b82525050565b6000602082019050610fd66000830184610fb2565b92915050565b600060208284031215610ff257610ff1610ecd565b5b600061100084828501610ef3565b91505092915050565b600081519050919050565b600082825260208201905092915050565b6000819050602082019050919050565b61103e81610f28565b82525050565b61104d81610ed2565b82525050565b6060820160008201516110696000850182611035565b50602082015161107c6020850182611044565b50604082015161108f6040850182611044565b50505050565b60006110a18383611053565b60608301905092915050565b6000602082019050919050565b60006110c582611009565b6110cf8185611014565b93506110da83611025565b8060005b8381101561110b5781516110f28882611095565b97506110fd836110ad565b9250506001810190506110de565b5085935050505092915050565b6000602082019050818103600083015261113281846110ba565b905092915050565b6000806040838503121561115157611150610ecd565b5b600061115f85828601610ef3565b925050602061117085828601610ef3565b9150509250929050565b61118381610f28565b82525050565b61119281610ed2565b82525050565b60006060820190506111ad600083018661117a565b6111ba6020830185611189565b6111c76040830184611189565b949350505050565b60006111da82610f08565b9050919050565b6111ea816111cf565b82525050565b600060c08201905061120560008301896111e1565b6112126020830188611189565b61121f6040830187611189565b61122c6060830186611189565b6112396080830185611189565b61124660a0830184610fb2565b979650505050505050565b60006020820190506112666000830184611189565b92915050565b600060c082019050611281600083018961117a565b61128e6020830188611189565b61129b6040830187611189565b6112a86060830186611189565b6112b56080830185610fb2565b6112c260a0830184611189565b979650505050505050565b600082825260208201905092915050565b7f496e76616c6964207061636b6574204944000000000000000000000000000000600082015250565b60006113146011836112cd565b915061131f826112de565b602082019050919050565b6000602082019050818103600083015261134381611307565b9050919050565b7f54686973207061636b657420686173206265656e207265636c61696d6564206f60008201527f7220657870697265640000000000000000000000000000000000000000000000602082015250565b60006113a66029836112cd565b91506113b18261134a565b604082019050919050565b600060208201905081810360008301526113d581611399565b9050919050565b7f416c6c20736c6f7473206172652066696c6c6564000000000000000000000000600082015250565b60006114126014836112cd565b915061141d826113dc565b602082019050919050565b6000602082019050818103600083015261144181611405565b9050919050565b7f526564207061636b657420657870697265640000000000000000000000000000600082015250565b600061147e6012836112cd565b915061148982611448565b602082019050919050565b600060208201905081810360008301526114ad81611471565b9050919050565b7f596f75206861766520616c726561647920636c61696d6564207468697320726560008201527f64207061636b6574000000000000000000000000000000000000000000000000602082015250565b60006115106028836112cd565b915061151b826114b4565b604082019050919050565b6000602082019050818103600083015261153f81611503565b9050919050565b7f4e487b7100000000000000000000000000000000000000000000000000000000600052601260045260246000fd5b7f4e487b7100000000000000000000000000000000000000000000000000000000600052601160045260246000fd5b60006115af82610ed2565b91506115ba83610ed2565b9250826115ca576115c9611546565b5b828204905092915050565b60006115e082610ed2565b91506115eb83610ed2565b925082820390508181111561160357611602611575565b5b92915050565b600061161482610ed2565b915061161f83610ed2565b925082820261162d81610ed2565b9150828204841483151761164457611643611575565b5b5092915050565b600081905092915050565b50565b600061166660008361164b565b915061167182611656565b600082019050919050565b600061168782611659565b9150819050919050565b7f4661696c656420746f2073656e64206574686572000000000000000000000000600082015250565b60006116c76014836112cd565b91506116d282611691565b602082019050919050565b600060208201905081810360008301526116f6816116ba565b9050919050565b600061170882610ed2565b91507fffffffffffffffffffffffffffffffffffffffffffffffffffffffffffffffff820361173a57611739611575565b5b600182019050919050565b600060408201905061175a6000830185611189565b6117676020830184611189565b9392505050565b7f4f6e6c79207468652073656e6465722063616e207265636f7665720000000000600082015250565b60006117a4601b836112cd565b91506117af8261176e565b602082019050919050565b600060208201905081810360008301526117d381611797565b9050919050565b7f43616e6e6f74207265636f7665723a20616c726561647920636c61696d65642060008201527f6f72206578706972656400000000000000000000000000000000000000000000602082015250565b6000611836602a836112cd565b9150611841826117da565b604082019050919050565b6000602082019050818103600083015261186581611829565b9050919050565b7f4e6f2072656d61696e696e6720616d6f756e7420746f207265636f7665720000600082015250565b60006118a2601e836112cd565b91506118ad8261186c565b602082019050919050565b600060208201905081810360008301526118d181611895565b9050919050565b7f4661696c656420746f2073656e64207265636f76657265642065746865720000600082015250565b600061190e601e836112cd565b9150611919826118d8565b602082019050919050565b6000602082019050818103600083015261193d81611901565b9050919050565b7f416d6f756e74206d757374206265203e20300000000000000000000000000000600082015250565b600061197a6012836112cd565b915061198582611944565b602082019050919050565b600060208201905081810360008301526119a98161196d565b9050919050565b7f4d7573742068617665206174206c656173742031207061727469636970616e74600082015250565b60006119e66020836112cd565b91506119f1826119b0565b602082019050919050565b60006020820190508181036000830152611a15816119d9565b9050919050565b6000606082019050611a316000830186611189565b611a3e6020830185611189565b611a4b6040830184611189565b94935050505056fea26469706673582212204d66d1ddcfc7fbae5a870ab9924875af29d974f83cee2fcf5508c142961328b764736f6c63430008140033",
  "linkReferences": {},
  "deployedLinkReferences": {}
}